:020000040800F2
:10000000C80A0020810100082F0F00082D0F0008EA
:1000100000000000000000000000000000000000E0
:10002000000000000000000000000000F91B0008B4
:100030000000000000000000310F0008FB1B00085A
:100040009301000893010008930100089301000840
:10005000930100082506000893010008AD0600087A
:100060009301000893010008930100089301000820
:10007000930100089301000893010008051C000883
:100080009301000893010008930100089301000800
:1000900093010008930100089301000893010008F0
:1000A00093010008930100089301000893010008E0
:1000B00093010008930100089301000893010008D0
:1000C00000F002F800F04CF812A030C808382418EC
:1000D0002D18AC4201D100F043F80FCCA246AB463C
:1000E0000CA730CF2D1B083F3F197C427F1E544484
:1000F0002D090426F441641EAC4201D300F030F80F
:100100000126334200D0FB1A3343984754465D46DC
:10011000DFE700001C3900003C390000103A02D330
:1001200078C878C1FAD8520701D330C830C101D598
:1001300004680C6070470000704700000023002432
:1001400000250026103A01D378C1FBD8520700D30E
:1001500030C100D50B6070471FB51FBD10B510BD75
:1001600000F02DFA1146FFF7F7FF01F0EDFE00F069
:1001700045FA03B4FFF7F2FF03BC00F04BFA0000AE
:100180000748804707480047FEE7FEE7FEE7FEE72F
:10019000FEE7FEE704480549054A064B70470000A4
:1001A000031C0008C1000008C8040020C80A002081
:1001B000C8060020C806002070B5054610460C464B
:1001C00018430ED000210846891A984127DA0021E9
:1001D0000846491BA04118DA2846214600F067F975
:1001E00070BD002C03DA01230022DB0707E00021A9
:1001F0000846491BA04102DA0022D24353081046A8
:100200001946C046C0462A4627E000216842A1415F
:1002100000F04DF9002440428C4121461AE00021B3
:100220000846491BA0410CDA214600205242984161
:100230000346284600F03BF9002440428C41214609
:1002400070BD002052429841002103466842A141FE
:1002500000F02DF9002452429C41234670BDD2B2D9
:1002600010B513029A1813049A1800F001F810BD83
:1002700001E004C0091F0429FBD28B0701D50280CD
:10028000801CC90700D00270704700290BD0C3073B
:1002900002D00270401C491E022904D3830702D5F4
:1002A0000280801C891EE3E70022EEE70022DFE7E0
:1002B000002203098B4273D3030A8B4258D3030BEA
:1002C0008B423CD3030C8B4221D312E003460B43F9
:1002D0007FD4002243088B4274D303098B425FD33F
:1002E000030A8B4244D3030B8B4228D3030C8B426B
:1002F0000DD30902FF2212BA030C8B4202D3121251
:10030000090265D0030B8B4219D300E0090AC30B25
:100310008B4201D3CB03C01A5241830B8B4201D3D2
:100320008B03C01A5241430B8B4201D34B03C01ABB
:100330005241030B8B4201D30B03C01A5241C30A33
:100340008B4201D3CB02C01A5241830A8B4201D3A4
:100350008B02C01A5241430A8B4201D34B02C01A8E
:100360005241030A8B4201D30B02C01A5241CDD233
:10037000C3098B4201D3CB01C01A524183098B427E
:1003800001D38B01C01A524143098B4201D34B0167
:10039000C01A524103098B4201D30B01C01A5241CA
:1003A000C3088B4201D3CB00C01A524183088B4251
:1003B00001D38B00C01A524143088B4201D34B003A
:1003C000C01A5241411A00D20146524110467047AC
:1003D0005DE0CA0F00D04942031000D340425340B1
:1003E0009C46002203098B422DD3030A8B4212D371
:1003F0008901FC2212BA030A8B420CD389019211A3
:100400008B4208D3890192118B4204D389013AD0DF
:10041000921100E08909C3098B4201D3CB01C01AB4
:10042000524183098B4201D38B01C01A52414309C7
:100430008B4201D34B01C01A524103098B4201D3B5
:100440000B01C01A5241C3088B4201D3CB00C01A22
:10045000524183088B4201D38B00C01A5241D9D23A
:1004600043088B4201D34B00C01A5241411A00D2BB
:1004700001465241104663465B1001D34042002BB7
:1004800000D54942704763465B1000D3404201B536
:100490000449002802DC491C084000E00846C04628
:1004A000C04602BDFFFFFF7F704770477047FEB533
:1004B000044610460D46184373D0A6468C460020CD
:1004C000A41A01469D4167D36646002701243D4694
:1004D000B61A9D4102D313463A4621246546764614
:1004E0002F04360C3E432D0CB61A9D4104D3150C37
:1004F0001B042B4312041034654676462F06360A39
:100500003E432D0AB61A9D4104D3150E1B022B4300
:1005100012020834654676462F0736093E432D09F8
:10052000B61A9D4104D3150F1B012B431201241D44
:1005300065467646AF07B6083E43AD08B61A9D41FC
:1005400004D3950F9B002B439200A41C654676466E
:10055000EF0776083E436D08B61A9D411AD39218EC
:100560005B41641C16E00018764665464941B71A9F
:100570009D410191009009D36046B11A98418E4681
:100580008446009801990025401C6941DD07520806
:100590002A435B08641EE6D57246634603B0F0BD8D
:1005A000FFE72046284307D00020C0430146C0464D
:1005B000C04622462B46F1E700200146F7E7754684
:1005C00000F024F8AE46050069465346C008C00056
:1005D000854618B020B5FFF7DDFD60BCB6460026A5
:1005E0000027C0C5C0C5C0C5C0C5C0C5C0C5C0C541
:1005F000C0C5403D490849008D46704710B50446C6
:10060000C046C0462046FFF7B4FD10BD0048704705
:100610005000002001491820ABBEFEE72600020072
:100620007047000070B582B0694C2068C0073BD0AD
:10063000684D288BEA692B6A00260096D11A89B288
:100640009A1893B2401E80B2024600F04DFD288BEE
:10065000EA692B6A0096D11A89B29A1893B20246B7
:1006600000F042FDE8692F2801DC083000E0382066
:10067000E8612A8B2B6A01260096C11A89B21818E4
:1006800083B2501E80B2024600F02EFD288BEA692C
:100690002B6A0096D11A89B29A1893B2024600F0DA
:1006A00023FD20683043206002B070BD70B582B079
:1006B0004648016840224A400260454C2068C00616
:1006C00004D42068800641D402B070BD414D288B0F
:1006D000EA692B6A00260096D11A89B29A1893B259
:1006E000401E80B2024600F0FFFC288BEA692B6AAC
:1006F0000096D11A89B29A1893B2024600F0F4FC1F
:10070000E869112801DB083800E00820E8612A8B3D
:100710002B6A01260096C11A89B2181883B2501E9E
:1007200080B2024600F0E0FC288BEA692B6A009652
:10073000D11A89B29A1893B2024600F0D5FC20680B
:1007400010210143216020688006BDD5214D288BF2
:10075000EA692B6A00260096D11A89B29A1893B2D8
:10076000401E80B2024600F0BFFC288BEA692B6A6B
:100770000096D11A89B29A1893B2024600F0B4FCDE
:10078000E8692F2801DC083000E03820E8612A8B76
:100790002B6A01260096C11A89B2181883B2501E1E
:1007A00080B2024600F0A0FC288BEA692B6A009612
:1007B000D11A89B29A1893B2024600F095FC2068CB
:1007C00020210143216002B070BDC04614080048DA
:1007D0001404014000000020B0B5044600F00CF8FD
:1007E0000546601C02D021480078041900F004F886
:1007F000401BA042FAD3B0BD054800687047C04610
:100800001A48007802490A68101808607047C04604
:10081000C404002080B58548016810220A430260A4
:10082000032000F005F800F023F8002080BDC0464A
:1008300070B504467D20C0000C4E317802F02AFCD1
:1008400001468248006802F025FC00F055FB0125B6
:10085000032C08D8002806D10025E84321462A4663
:1008600000F01CF87460284670BDC04638000020B7
:1008700082B00948016801221143016001681140FA
:1008800001910199110742680A434260406808409B
:100890000090009802B0704718100240002805D45C
:1008A0000322034693430A4A9A1803E00C220240AB
:1008B000064BD2188007C00E8901C9B28140FF23C0
:1008C00083401068984308431060704714ED00E0BF
:1008D00000E400E0F0B581B0002846D00446534A59
:1008E0001368012003408B4208D213680126B343EA
:1008F0000B431360126832408A4237D1009121685D
:100900008A074B4B10D54A0706D5072212021B68EF
:100910001343474A1360464B1A68F0239A43A3686F
:100920001343434A1360424BC90722D13F49086829
:1009300001263040009A904205D90868B04308600B
:100940000868C00712D12078400706D507200002AA
:1009500019688143E068084318601A681007810F1E
:100960003548022912D2044650E00126304601B033
:10097000F0BD616803290DD01A1F02290FD001298B
:1009800012D1126892030646F0D511E0032926D150
:100990002A4C3BE01A6B92030646E7D508E0126842
:1009A00092010646E2D503E0126892070646DDD5BD
:1009B00018680326B04308431860FFF71DFF074679
:1009C0001C4D1B4B18680C2101406068800081425F
:1009D000ACD0FFF711FFC01BA842F2D9C6E7032134
:1009E000CB031349896A0F240C401549095D940211
:1009F0001A40240F134D2C5D9A4202D033049A42C0
:100A000000E00E4802F046FB4443094B186800061C
:100A1000000F0D49085CC4400C4804600320FFF738
:100A200007FF0026304601B0F0BDC046002002405E
:100A3000041002408813000000127A00006CDC02EF
:100A4000163A0008063A00088A32000848000020DA
:100A5000F0B587B004460120002C00D145E2049097
:100A60002078C007F94E05940CD071680C20014025
:100A7000042900D090E03068800303D56068002826
:100A800000D120E12078800721D570680007800F11
:100A90000ED070680C210140082900D09DE0032091
:100AA000C003716801400120C003814200D094E07E
:100AB00030688007059C03D5E068012800D002E17A
:100AC0003068F82188432169C90001433160059CE1
:100AD0002078000724D42078400737D42078C00637
:100AE00000D4D3E005984069411D00D1C2E001283F
:100AF00000D030E1706B042101437163706B012100
:100B000001437163FFF778FE0546706B800700D5DF
:100B1000B4E0FFF771FE411B03200229F5D9E4E19F
:100B2000706AE169002900D181E001210843706207
:100B3000FFF762FE0546706A8007CCD4FFF75CFEC3
:100B4000401B0228F7D9032007B0F0BD0120039015
:100B50000107F0690840029006D1F0690843F0618E
:100B6000F0690840069006980191E14F3868C00589
:100B70004AD403980402386820433860FFF73CFEEB
:100B80000546386820423FD1FFF736FE401B6428F7
:100B9000F7D9032007B0F0BD71680140082908D1DA
:100BA0000320C0037168014001200004814200D18C
:100BB00061E7616801204704002900D117E1052998
:100BC00000D12BE1012900D12CE1010432688A43D4
:100BD000326081043068884327E13068059CE16811
:100BE000002936D0012108433060FFF705FE054695
:100BF0003068800700D563E7FFF7FEFD401B022841
:100C0000F6D9032007B0F0BD05988068002800D110
:100C1000B6E0052800D1C9E0012800D1CAE0306A59
:100C2000039988433062306A04218843C5E001217A
:100C300088437062FFF7E0FD0546706A800700D4C4
:100C400049E7FFF7D9FD401B0228F6D9032007B07A
:100C5000F0BD012188433060FFF7CEFD05463068C6
:100C6000800700D433E7FFF7C7FD411B03200229AB
:100C7000F5D93AE1706B042188437063706BF821F9
:100C8000884305998969C900014371630598007813
:100C900080060BD571680C2001400C2939D1706B8E
:100CA000800303D50598006A01280CD10598446A91
:100CB000002C00D1E1E070680C210140082905D129
:100CC000012C00D0C4E0049807B0F0BD012002065A
:100CD00031680492914331604706FFF78DFD054668
:100CE000022C0BD1049C3068384200D1DEE0FFF7C3
:100CF00083FD411B03200229F5D9F6E03068384214
:100D000000D1BAE0FFF778FD411B03200229F5D995
:100D1000EBE071680140082905D10320C003716828
:100D200001408142BBD0706B0599096A002900D14E
:100D3000A9E001210A04104370634C04FFF75CFD35
:100D40000546706B2042B1D1FFF756FD411B0320D1
:100D50000229F6D9C9E0706B042101437163706BFD
:100D6000012188437063FFF747FD0546706B8007DC
:100D70008CD5FFF741FD411B03200229F6D9B4E0D1
:100D8000306A039988433062306A042188433062B4
:100D9000584CFFF731FD0546306A80071DD5FFF737
:100DA0002BFD411B0320A142F6D99EE0306A0421AD
:100DB00001433162306A0399084330624D4CFFF7BA
:100DC0001BFD0546306A800707D4FFF715FD401B61
:100DD000A042F7D9032007B0F0BD02980028059C77
:100DE00000D07BE6F06901998843F06176E6010462
:100DF00032688A4332608004316881433160FFF792
:100E0000FBFC0546059C3068384200D13AE6FFF706
:100E1000F3FC411B03206429F5D966E081043268A4
:100E20000A4332600104306808433060FFF7E4FC95
:100E300005463068384200D024E6FFF7DDFC401B51
:100E40006428F6D9032007B0F0BDC0460010024068
:100E50000320C20370680240F16A059CA36A9A42AB
:100E6000049D0DD10F221140236B994208D19104AA
:100E70000840E16A8842284637D1002007B0F0BD1B
:100E8000284607B0F0BD01210A04904370634C046A
:100E9000FFF7B2FC0546706B204200D106E7FFF772
:100EA000ABFC411B03200229F5D91EE0F06A0F219B
:100EB0008843059A116B0143F1627B20C00371687E
:100EC0008143D06A0843916A0143716030682043CE
:100ED0003060FFF791FC044630683842CDD1FFF70F
:100EE0008BFC011B03200229F6D907B0F0BDC046D8
:100EF0000070004088130000401E010E01D0012048
:100F000070470749074A5060074803680B400321B0
:100F1000890759180160002090600721116070470F
:100F2000FFFFFF0010E000E020ED00E0FEE7FEE73D
:100F300070470000F0B58BB0099317460A91012461
:100F400002907F2817D80A9979188AB23F2A12D8B6
:100F500007230B4022469A4009016148014002984C
:100F600083B2C9185F4B585C099D012D01D0904395
:100F700000E01043585402987F2817D80A99C91BDB
:100F80008AB23F2A12D807230B4022469A40090111
:100F900053480140029883B2C918524B585C099DCE
:100FA000012D01D0904300E01043585402983918A5
:100FB0000A9A3F2A15D88AB27F2A12D807230A9D97
:100FC0002B4020469C402B01454D2B409A18454B09
:100FD0009D5C099E012E01D0A54300E025439D5450
:100FE00004460298C21B0A9B3F2B15D893B27F2B55
:100FF00012D807250A9E35400794AC403501F948C0
:101000000540E818F84B1D5C099E012E01D0A54350
:1010100000E025431D54079C0998009090B28AB2C5
:101020000A9989B20B4600F05FF8012F56DB780071
:10103000E31B4242002009E0069F3FB210B2841C2D
:101040001B19089800B2B8420A4647DA099900917C
:1010500019B20391002907940593049200DB7F1EC7
:101060000A99791889B2421C0892029CA01A80B28F
:101070000690121995B22A460B4600F035F8099EE3
:1010800000960A98C01B81B22846069A0B4600F0CB
:101090002BF80096381985B20697E01B089E87B298
:1010A0000A9C301981B228463A460B4600F01CF8DB
:1010B00009980090A01B81B228463A460B4600F0E2
:1010C00013F8049A901C039B002B014600DA11468A
:1010D000002B079A059BAFDB1B18ADE70BB0F0BDEB
:1010E00080FF0F00C0000020F0B588B03F243F29EA
:1010F000079100D3BEE03F2B1F4600D3BFE0079C03
:10110000E61B01D2079C3E1B7F257F2800900446EA
:1011100000D32C467F2A069200D3069501910698AB
:10112000201A0290394602D20698001B0290002035
:10113000C04301270594069DAC420497039700D352
:101140000390029C24040F460799B94200D30490EF
:101150000D9D002C00D198E033B2002B00D1B8E0F7
:10116000029800B29842029000DC5842C1B2C9090C
:10117000401840B241100298404202B2012D01973E
:1011800000923BD1079880B23F2812D8059CA4B2A8
:101190007F2C0ED80725079A15400127AF4015016F
:1011A000904A1540009A2C19964E355D3D43019F9B
:1011B0003555B842059C04D1A0B2069DA84200D185
:1011C000E1E008B2904206DC984207DB984209DB76
:1011D0009042D7DD0EE0C91A9842F7DA029D49190C
:1011E0009842F5DA3D46049F079EF61907962F466A
:1011F0009042C7DD039824180594C3E7079880B28E
:101200003F2812D8059CA4B27F2C0ED80725079A38
:1012100015400127AF401501724A1540009A2C195C
:10122000784E355DBD43019F3555B842059C04D1CC
:10123000A0B2069DA84200D1A5E008B2904206DC0B
:10124000984207DB984209DB9042D7DD0EE0C91ACD
:101250009842F7DA029D49199842F5DA3D46049F13
:10126000079EF61907962F469042C7DD039824186B
:101270000594C3E707943F2B1F4600D23FE727465C
:10128000079CE61B00D23DE73EE70798874256D908
:1012900005980699814257D20198834258D23F2B34
:1012A00059D2012D39465AD11801E74A07241C406A
:1012B0000126A6400446E34D2C40069D2C43175DB5
:1012C000374317550E4610305C1C8B422346EDD336
:1012D00059E005980699814257D90098824258D220
:1012E0007F2A59D20798874200D3079F38010723E6
:1012F000D90101401F400120B840012D51D1D24BEE
:1013000059188B5C03438B54069B9A423BD28B1833
:101310005C7804435C70521C069CA24233D29C78D9
:1013200004439C70541C069A94422CD2DA780243EF
:10133000DA70A21C631C069CA342E2D323E0079F41
:10134000059806998142A7D3069001988342A6D3B7
:1013500003463F2BA5D33F23012D3946A4D01801C6
:10136000B94A07241C400126A6400446B54D2C402E
:10137000069D2C43175DB74317550E4610305C1C75
:101380008B422346EDD308B0F0BD06900098824210
:10139000A6D302467F2AA5D37F2207988742A4D2EC
:1013A000A4E7C043A84B59188B5C03408B54069BA1
:1013B0009A42E8D28B185C7804405C70521C069C00
:1013C000A242E0D29C7804409C70541C069A94423D
:1013D000D9D2DA780240DA70A21C631C069CA342C0
:1013E000E2D3D0E780FF0F00C000002080B50028C6
:1013F00001D1024600E0FF22012081029248FEF75F
:101400002EFF80BDC00000208C4A518010807047A4
:10141000F0B590B01346894D2C88894A17783E194B
:1014200000217F2E00D905E105976F885278D519E4
:101430003F2D00D9FEE0824D00960F930190002AC7
:1014400000D1F3E00598002800D1EFE0394601987B
:1014500020385043049068680390FC2305980340AB
:101460000B9303230340069301200A90C0030E90C0
:101470000020754F0891079209E00C9A11403954E9
:101480000998401C079A9042089900D1CEE0099033
:10149000081881B23F29F3D80499099A51184900D4
:1014A000039A565A030167490B40072101400A98E5
:1014B00088400D90C0430C90059804280ED200205F
:1014C00006990029DCD0221895B27F2D79D8029296
:1014D0000E99C140314266D0012265E0002007E04C
:1014E0000C9A1140584F7955001D0B998142E7D055
:1014F00021188DB27F2D12D80E99C140314201D0F2
:101500000A9A00E0FE225D19795D0F9FBA4202D06F
:101510000C9A114001E00D9A11434B4F7955411C33
:10152000621895B27F2D12D80E9ACA40324201D06D
:10153000012200E0FE225D19795D0F9FBA4202D0C0
:101540000C9A114001E00D9A11433F4F7955811CCF
:10155000621895B27F2D12D80E9ACA40324201D03D
:10156000012200E0FE225D19795D0F9FBA4202D090
:101570000C9A114001E00D9A1143FA4F7955C11CA4
:10158000621895B27F2DAFD80E9ACA40324201D070
:10159000012200E0FE225D19795D0F9FBA429FD1C2
:1015A0000D9A11439EE7FE225D19795D0F9FBA42A5
:1015B00002D00C9A114001E00D9A1143E94F795580
:1015C000029A0699012900D15AE7511C8DB27F2D4C
:1015D00014D8029231468140490401D5012200E02D
:1015E000FE225D19795D0F9FBA4202D00C9A11401C
:1015F00001E00D9A1143DB4F7955029A06990229B1
:1016000000D13DE7911C8DB27F2D00D938E786408F
:10161000B00401D5012200E0FE225819395C0F9B6D
:101620009A4200D029E70D9A114328E7CA48009949
:1016300001800199084610B0F0BDC046B0000020FE
:101640004000002080FF0F00C0000020F0B590B0E7
:101650000F920778002F00D120E1BF4D6C88A3B214
:10166000BE494A78D6B2F3183F2B00D913E1089649
:1016700006942B880C78E6B2120600D112E12206FD
:1016800000D139E149680391FC2131400B910321DC
:101690003140079101210A91C9030E91B14D069A7B
:1016A000059699B271187F2904D90021B94200D159
:1016B000EBE0F0E001900097203F08984743049743
:1016C000002109E00C9A1140069A29540999491CF5
:1016D0000898814200D1CFE00991501881B23F298A
:1016E000F4D806019E490E400499099A5118490000
:1016F000039A575A072101400A9888400D90C04329
:101700000C9005980021042816D207980028069A04
:10171000DCD05C18A0B27F2878D80E9ACA403A4232
:10172000029464D0012263E00C9A14408D4D2C5435
:10173000091D0B988842E8D0581880B27F2812D82B
:101740000E9ACA403A4201D00A9A00E0FE223018AE
:101750002C5C0F9DAA4202D00C9A144001E00D9A15
:101760001443804D2C544A1C981880B27F2812D8FC
:101770000E9CD4403C4201D0012200E0FE223018F1
:101780002C5C0F9DAA4202D00C9A144001E00D9AE5
:101790001443744D2C548A1C981880B27F2812D898
:1017A0000E9CD4403C4201D0012200E0FE223018C1
:1017B0002C5C0F9DAA4202D00C9A144001E00D9AB5
:1017C0001443684D2C54CA1C981880B27F28AFD897
:1017D0000E9CD4403C4201D0012200E0FE22301891
:1017E0002C5C0F9DAA429FD10D9A14439EE7FE22C6
:1017F00030182C5C0F9DAA4202D00C9A144001E0D4
:101800000D9A1443069AFB4D2C54029C079801280C
:1018100000D15BE7601C80B27F2815D83A468A4029
:101820005204029401D5012200E0FE2230182C5C03
:101830000F9DAA4202D00C9A144001E00D9A144365
:10184000069AEC4D2C54029C0798022800D13DE7E3
:10185000A01C80B27F2800D938E78F40B90401D599
:10186000012200E0FE223018295C0F9CA24200D029
:1018700028E70D9A114327E7059E9B1936480380F8
:10188000019807780099B94205D14778401C002F8C
:1018900000D006E70027F8B210B0F0BD0027F8B27C
:1018A00010B0F0BDF1187F29F5D8011D9B19C81E95
:1018B00007780022002F49D09CB234197F2C46D8DB
:1018C0009B19881E0778002F40D09CB234197F2CBA
:1018D0003DD89B19481E0778002F37D09CB2341989
:1018E0007F2C34D89B190F78002F2FD09AB2B218C2
:1018F000091D7F2ADAD92AE0F1187F29CBD8011DEA
:101900009B19C81E07780022002F1FD09CB23419E3
:101910007F2C1CD89B19881E0778002F16D09CB2EC
:1019200034197F2C13D89B19481E0778002F0DD02F
:101930009CB234197F2C0AD89B190F78002F05D040
:101940009AB2B218091D7F2ADAD900E017462B8017
:10195000F8B210B0F0BDC046B0000020400000203A
:1019600080FF0F00C0000020F0B581B001214803C6
:101970004904009100229B4B03E0521C082A00D12D
:101980002EE19B490A701F46143F3C68964D2C403F
:101990003C603E68782426433E603E6800990E43D2
:1019A0003E603E6891490E403E603E6806433E60A0
:1019B0001E68B6070FD41D681D68AD070BD41D68DF
:1019C0001D68AD0707D41D681D68AD0703D41D68E9
:1019D0001D68AD07EFD500261E611D68AD070FD449
:1019E0001D681D68AD070BD41D681D68AD0707D4C1
:1019F0001D681D68AD0703D41D681D68AD07EFD5D0
:101A00001546B0351D613D6877490D403D603D6824
:101A100025433D603D6800990D433D603D68734935
:101A20000D403D603D6805433D601D68AD070FD426
:101A30001D681D68AD070BD41D681D68AD0707D470
:101A40001D681D68AD0703D41D681D68AD07EFD57F
:101A50001E611D68AD070FD41D681D68AD070BD44E
:101A60001D681D68AD0707D41D681D68AD0703D448
:101A70001D681D68AD07EFD51E613D685A490D40D0
:101A80003D603D6825433D603D6800990D433D60E4
:101A90003D6856490D403D603D6805433D601D6809
:101AA000AD070FD41D681D68AD070BD41D681D68F8
:101AB000AD0707D41D681D68AD0703D41D681D68F8
:101AC000AD07EFD51E611D68AD070FD41D681D68F9
:101AD000AD070BD41D681D68AD0707D41D681D68D0
:101AE000AD0703D41D681D68AD07EFD510251D6136
:101AF0003D683D490D403D603D6825433D607F2484
:101B000024043D6825433D603C6838490C403C60F6
:101B10003C6804433C601C68A4070FD41C681C6824
:101B2000A4070BD41C681C68A40707D41C681C6895
:101B3000A40703D41C681C68A407EFD5D4012D4961
:101B40000C1940251D611D68AD0738D509E07C25BD
:101B50007D5D1D61F61C7E2E00D10EE71D68AD0770
:101B60002DD5A71B7E257D5D1D611D68AD070FD49A
:101B70001D681D68AD070BD41D681D68AD0707D42F
:101B80001D681D68AD0703D41D681D68AD07EFD53E
:101B90007D257D5D1D611D68AD07D8D41D681D685C
:101BA000AD07D4D41D681D68AD07D0D41D681D686D
:101BB000AD07CCD41D681D68AD07EFD5C7E71D681C
:101BC0001D68AD07CDD41D681D68AD07C9D41D685B
:101BD0001D68AD07C5D41D681D68AD07EFD5C0E70A
:101BE00001B0F0BD1858004000FC80FFFFFBFFFF74
:101BF000C0040020C0000020704780B5FEF700FE42
:101C000080BD7047F0B581B0032000027F490A68AB
:101C100042400A607C4E334608330FCB801A00B234
:101C2000C91A09B2022500232A46FFF783F90C20BE
:101C3000315E0820305E01242A462346FFF77AF9F8
:101C4000308BF269336A0094D11A89B29A1893B230
:101C5000401E80B20246FFF747FA308BF269336AC2
:101C60000094D11A89B29A1893B20246FFF73CFA4F
:101C7000F5683D2D13DB03CE654F7A68424350185B
:101C8000B26AF36A0021083EFEF796FA10467A60BF
:101C9000716A491EFEF70CFBE043401A13E0052D64
:101CA00013DA03CE5A4F7A6842435018B26AF36A85
:101CB0000021083EFEF780FA10467A60716A491EDC
:101CC000FEF7F6FA881C706100E070694119F16056
:101CD000B0687B2813DB03CE4D4D6A684243501831
:101CE000B26AF36A0021083EFEF766FA10466A609F
:101CF000716A491EFEF7DCFAE043401A17E0042837
:101D000003DB00F035F800282DD003CE404C62688C
:101D100042435018B26AF36A0021083EFEF74CFABB
:101D200010466260716A491EFEF7C2FA881C306173
:101D3000B1684018B0603B203221FFF765FB2820D6
:101D4000305C3030C0B2002101242246FFF760FB36
:101D50002F488168002900D1047004480168A1431C
:101D6000016001B0F0BD3069E2E7C04610000040FC
:101D700070B50246F44EB069F369D41E801C8442EB
:101D800028DC18460830884224DD18460838884286
:101D900020DA306900281DD51C48016880224A409D
:101DA0000260B26A511CB1620120022A19DB0322CF
:101DB00072620A2915D300252846FFF717FB282051
:101DC0001B21FFF721FBE348012429462246FFF7A8
:101DD0003DFC11E09C1D00208C4203DB9B1F8B42CD
:101DE00000DC70BD062AFCDC31690029F9D5B06A37
:101DF000401EB06205DC0024F462D44901208860F2
:101E000070BD012070BDC0460000002014080048CD
:101E1000B4000020F0B583B0444D2B460C3B19684C
:101E200019602C1F2168424A114021602968114025
:101E30002960012041022A680A432A603D4A11684C
:101E4000102631431160D168B143D16091683143AC
:101E500091603949002602960E6019681960216860
:101E6000364F39402160296839402960C1032F6805
:101E70000F432F6011688026019631431160D168AD
:101E8000B143D16091683143916019681960C143D1
:101E9000064627680F4027602F680F402F6028688C
:101EA0000227009738432860186818602068244F7C
:101EB00038402060286838402860F00237462E6895
:101EC00006432E601068202630431060D068B0436F
:101ED000D060906830439060174E02987060B06098
:101EE000F060186818602068084020602868084082
:101EF00028602868009B18432860106838431060E9
:101F0000D0680840D0609068384390600298306094
:101F1000FF2000060B490A6882430320800710183F
:101F2000086086480199016003B0F0BD0C000048CC
:101F3000FFFEFFFF0004014008000140FFBFFFFF5C
:101F4000FFFBFFFF04E400E092B0FEF763FC05AD89
:101F5000281D3021FEF7AAF900240E9410200990C4
:101F600001260896022005902846FEF771FD0028FC
:101F700003D0EFF3108072B6FEE70494039402944A
:101F80000725019501A82146FEF7A4FC002803D0EF
:101F9000EFF3108072B6FEE764488168644A0A4332
:101FA0008260690402680A430260B30705204102A7
:101FB00008466A3098626420D862D8683043D86096
:101FC000FF2005065B4A1768AF43FD1815605D6981
:101FD00035435D611D6835431D60574BDD684527FE
:101FE0002F43DF601D6809272F431F601D682427CA
:101FF0002F431F607307514F3B60030215699D43D8
:10200000B303EB1813614E4D2A680A432A6011216D
:1020100009042A6A0A432A62552211032B680B43DA
:102020002B6052032B6893432B606A68454B1A4020
:102030006A60AA688A43AA600003E9688143E9608C
:10204000686918406861FFF7E5FE00F08BF800F062
:10205000C7FFF5033D603C4F388BFA693B6A009639
:10206000D11A89B29A1893B2401E80B20246FFF785
:102070003BF8388BFA693B6A0096D11A89B29A18F4
:1020800093B20246FFF730F8FFF76EFC2C4A506916
:102090000421014351612D4E03E0FFF765FC002050
:1020A0003070B0683178012905D006E001281AD0D7
:1020B0003178012901D10028EFD0012813D03178DF
:1020C000012901D10028E8D001280CD0317801295C
:1020D00001D10028E1D0012805D031780129E5D1CE
:1020E0000028E3D1D9E71A480560BFF34F8FBFF34B
:1020F0006F8F2046FFF77AF91348C76A012F01D086
:10210000212000E028201B21FFF77EF9012F114834
:1021100000D011A001222146FFF798FAFFF724FC16
:10212000B460204631780129C5D0C6E714100240BA
:10213000010044000CE400E00048004000E100E041
:10214000000800483FFCFFFF00000020B400002012
:1021500080E100E0263A000847414D45204F5645B2
:1021600052000000F0B583B00126B00534490A687A
:1021700002430A60F20533490B6813430B60F20215
:102180004B6813434B6032034B6A13434B62F206B6
:102190000B6813430B6072034B6813434B600523BA
:1021A0001B054C6A1C434C6233070C681C430C60D3
:1021B000B3034C689C434C604C691C434C612249FE
:1021C0000B6833430B604B68B3434B604B6933433D
:1021D0004B611E490C46083C236823602368132585
:1021E0001D4325600F231B0225681D4325607304D2
:1021F00025681D4325602568054325600846183875
:1022000004680296344304600D46143D2868104C5F
:1022100020402860286820402860286878273843B4
:1022200028602868184328602C680A4804402C60FD
:102230002C6814432C600C68A4071DD40CE0C04625
:102240001C100240000400480008004818580040D4
:1022500000FC80FFFFFBFFFF0868086880070BD4C5
:1022600008680868800707D408680868800703D4EE
:10227000086808688007EFD500240C6108688007AB
:102280000FD40868086880070BD4086808688007BE
:1022900007D408680868800703D4086808688007BE
:1022A000EFD5AE2008612868094E304028602868C4
:1022B000384328602868184328602868054E304055
:1022C00028602868104328600868800714D403E059
:1022D00000FC80FFFFFBFFFF0868086880070BD445
:1022E00008680868800707D408680868800703D46E
:1022F000086808688007EFD50C61086880070FD46C
:102300000868086880070BD408680868800707D445
:1023100008680868800703D4086808688007EFD554
:102320002020019008612868094E30402860286804
:10233000384328602868184328602868054E3040D4
:1023400028602868104328600868800714D403E0D8
:1023500000FC80FFFFFBFFFF0868086880070BD4C4
:1023600008680868800707D408680868800703D4ED
:10237000086808688007EFD50C61086880070FD4EB
:102380000868086880070BD408680868800707D4C5
:1023900008680868800703D4086808688007EFD5D4
:1023A0000C612868094E304028602868384328604E
:1023B0002868184328602868054E3040286028683F
:1023C000104328600868800714D403E000FC80FFF5
:1023D000FFFBFFFF0868086880070BD408680868DF
:1023E000800707D408680868800703D4086808686D
:1023F0008007EFD50C61086880070FD4086808686B
:1024000080070BD408680868800707D40868086844
:10241000800703D4086808688007EFD5B0200861FA
:1024200028680A4E304028602868384328602868A9
:10243000184328602868064E3040286028681043FA
:1024400028600868800715D404E0C04600FC80FFBF
:10245000FFFBFFFF0868086880070BD4086808685E
:10246000800707D408680868800703D408680868EC
:102470008007EFD50C61086880070FD408680868EA
:1024800080070BD408680868800707D408680868C4
:10249000800703D4086808688007EFD5C820086162
:1024A00028680A4E30402860286838432860286829
:1024B000184328602868064E30402860286810437A
:1024C00028600868800715D404E0C04600FC80FF3F
:1024D000FFFBFFFF0868086880070BD408680868DE
:1024E000800707D408680868800703D4086808686C
:1024F0008007EFD50C61086880070FD4086808686A
:1025000080070BD408680868800707D40868086843
:10251000800703D4086808688007EFD50C61286835
:10252000094E3040286028683843286028681843DE
:1025300028602868054E30402860286810432860CD
:102540000868800714D403E000FC80FFFFFBFFFF56
:102550000868086880070BD408680868800707D4F3
:1025600008680868800703D4086808688007EFD502
:102570000C61086880070FD40868086880070BD4CE
:1025800008680868800707D408680868800703D4CB
:10259000086808688007EFD51020086128680A4E8F
:1025A000304028602868384328602868184328602D
:1025B0002868064E30402860286810432860086864
:1025C000800715D404E0C04600FC80FFFFFBFFFF3E
:1025D0000868086880070BD408680868800707D473
:1025E00008680868800703D4086808688007EFD582
:1025F0000C61086880070FD40868086880070BD44E
:1026000008680868800707D408680868800703D44A
:10261000086808688007EFD54020086128680A4EDE
:1026200030402860286838432860286818432860AC
:102630002868064E304028602868104328600868E3
:10264000800715D404E0C04600FC80FFFFFBFFFFBD
:102650000868086880070BD408680868800707D4F2
:1026600008680868800703D4086808688007EFD501
:102670000C61086880070FD40868086880070BD4CD
:1026800008680868800707D408680868800703D4CA
:10269000086808688007EFD58120086128680A4E1D
:1026A000304028602868384328602868184328602C
:1026B0002868064E30402860286810432860086863
:1026C000800715D404E0C04600FC80FFFFFBFFFF3D
:1026D0000868086880070BD408680868800707D472
:1026E00008680868800703D4086808688007EFD581
:1026F0000C61086880070FD40868086880070BD44D
:1027000008680868800707D408680868800703D449
:10271000086808688007EFD5FF20086128680A4E1E
:1027200030402860286838432860286818432860AB
:102730002868064E304028602868104328600868E2
:10274000800715D404E0C04600FC80FFFFFBFFFFBC
:102750000868086880070BD408680868800707D4F1
:1027600008680868800703D4086808688007EFD500
:102770000C61086880070FD40868086880070BD4CC
:1027800008680868800707D408680868800703D4C9
:10279000086808688007EFD5A120086128680A4EFC
:1027A000304028602868384328602868184328602B
:1027B0002868064E30402860286810432860086862
:1027C000800715D404E0C04600FC80FFFFFBFFFF3C
:1027D0000868086880070BD408680868800707D471
:1027E00008680868800703D4086808688007EFD580
:1027F0000C61086880070FD40868086880070BD44C
:1028000008680868800707D408680868800703D448
:10281000086808688007EFD5A620086128680A4E76
:1028200030402860286838432860286818432860AA
:102830002868064E304028602868104328600868E1
:10284000800715D404E0C04600FC80FFFFFBFFFFBB
:102850000868086880070BD408680868800707D4F0
:1028600008680868800703D4086808688007EFD5FF
:102870000C61086880070FD40868086880070BD4CB
:1028800008680868800707D408680868800703D4C8
:10289000086808688007EFD5A820086128680A4EF4
:1028A000304028602868384328602868184328602A
:1028B0002868064E30402860286810432860086861
:1028C000800715D404E0C04600FC80FFFFFBFFFF3B
:1028D0000868086880070BD408680868800707D470
:1028E00008680868800703D4086808688007EFD57F
:1028F0000C61086880070FD40868086880070BD44B
:1029000008680868800707D408680868800703D447
:10291000086808688007EFD53F20086128680A4EDC
:1029200030402860286838432860286818432860A9
:102930002868064E304028602868104328600868E0
:10294000800715D404E0C04600FC80FFFFFBFFFFBA
:102950000868086880070BD408680868800707D4EF
:1029600008680868800703D4086808688007EFD5FE
:102970000C61086880070FD40868086880070BD4CA
:1029800008680868800707D408680868800703D4C7
:10299000086808688007EFD5A420086128680A4EF7
:1029A0003040286028683843286028681843286029
:1029B0002868064E30402860286810432860086860
:1029C000800715D404E0C04600FC80FFFFFBFFFF3A
:1029D0000868086880070BD408680868800707D46F
:1029E00008680868800703D4086808688007EFD57E
:1029F0000C61086880070FD40868086880070BD44A
:102A000008680868800707D408680868800703D446
:102A1000086808688007EFD5D320086128680A4E47
:102A200030402860286838432860286818432860A8
:102A30002868064E304028602868104328600868DF
:102A4000800715D404E0C04600FC80FFFFFBFFFFB9
:102A50000868086880070BD408680868800707D4EE
:102A600008680868800703D4086808688007EFD5FD
:102A70000C61086880070FD40868086880070BD4C9
:102A800008680868800707D408680868800703D4C6
:102A9000086808688007EFD50C612868094E304047
:102AA0002860286838432860286818432860286808
:102AB000054E304028602868104328600868800769
:102AC00014D403E000FC80FFFFFBFFFF08680868E8
:102AD00080070BD408680868800707D4086808686E
:102AE000800703D4086808688007EFD50C61086880
:102AF00080070FD40868086880070BD40868086846
:102B0000800707D408680868800703D40868086845
:102B10008007EFD5D520086128680A4E304028602C
:102B20002868384328602868184328602868064EBB
:102B3000304028602868104328600868800715D452
:102B400004E0C04600FC80FFFFFBFFFF0868086848
:102B500080070BD408680868800707D408680868ED
:102B6000800703D4086808688007EFD50C610868FF
:102B700080070FD40868086880070BD408680868C5
:102B8000800707D408680868800703D408680868C5
:102B90008007EFD5F020086128680A4E3040286091
:102BA0002868384328602868184328602868064E3B
:102BB000304028602868104328600868800715D4D2
:102BC00004E0C04600FC80FFFFFBFFFF08680868C8
:102BD00080070BD408680868800707D4086808686D
:102BE000800703D4086808688007EFD50C6108687F
:102BF00080070FD40868086880070BD40868086845
:102C0000800707D408680868800703D40868086844
:102C10008007EFD5D92008612868ED4E3040286044
:102C20002868384328602868184328602868E94ED7
:102C300030402860286810432860086880070FD457
:102C40000868086880070BD408680868800707D4FC
:102C500008680868800703D4086808688007EFD50B
:102C60000C61086880070FD40868086880070BD4D7
:102C700008680868800707D408680868800703D4D4
:102C8000086808688007EFD5222008612868D04EC0
:102C90003040286028683843286028681843286036
:102CA0002868CC4E304028602868104328600868A7
:102CB00080070FD40868086880070BD40868086884
:102CC000800707D408680868800703D40868086884
:102CD0008007EFD50C61086880070FD40868086882
:102CE00080070BD408680868800707D4086808685C
:102CF000800703D4086808688007EFD5DA200861E8
:102D00002868B34E30402860286838432860286817
:102D1000184328602868AF4E304028602868104368
:102D20002860086880070FD40868086880070BD4FB
:102D300008680868800707D408680868800703D413
:102D4000086808688007EFD50C61086880070FD411
:102D50000868086880070BD408680868800707D4EB
:102D600008680868800703D4086808688007EFD5FA
:102D7000122008612868964E304028602868384341
:102D800028602868184328602868924E30402860E0
:102D9000286810432860086880070FD4086808680E
:102DA00080070BD408680868800707D4086808689B
:102DB000800703D4086808688007EFD50C610868AD
:102DC00080070FD40868086880070BD40868086873
:102DD000800707D408680868800703D40868086873
:102DE0008007EFD5DB2008612868794E30402860E5
:102DF0002868384328602868184328602868754E7A
:102E000030402860286810432860086880070FD485
:102E10000868086880070BD408680868800707D42A
:102E200008680868800703D4086808688007EFD539
:102E30000C61086880070FD40868086880070BD405
:102E400008680868800707D408680868800703D402
:102E5000086808688007EFD50198086128685C4E0B
:102E60003040286028683843286028681843286064
:102E70002868584E30402860286810432860086849
:102E800080070FD40868086880070BD408680868B2
:102E9000800707D408680868800703D408680868B2
:102EA0008007EFD50C61086880070FD408680868B0
:102EB00080070BD408680868800707D4086808688A
:102EC000800703D4086808688007EFD58D20086163
:102ED00028683F4E304028602868384328602868BA
:102EE0001843286028683B4E30402860286810430B
:102EF0002860086880070FD40868086880070BD42A
:102F000008680868800707D408680868800703D441
:102F1000086808688007EFD50C61086880070FD43F
:102F20000868086880070BD408680868800707D419
:102F300008680868800703D4086808688007EFD528
:102F4000142008612868224E3040286028683843E1
:102F5000286028681843286028681E4B184028609D
:102F6000286810432860086880070FD4086808683C
:102F700080070BD408680868800707D408680868C9
:102F8000800703D4086808688007EFD50C610868DB
:102F900080070FD40868086880070BD408680868A1
:102FA000800707D408680868800703D408680868A1
:102FB0008007EFD5084844800480AF20086102985C
:102FC00081020648FDF772F9FEF7CEFC03B0F0BDB2
:102FD00000FC80FFFFFBFFFFB0000020C0000020CE
:102FE000F0B583B03D261C21029130460196FEF7D4
:102FF0000BFA23A00024012521462A46FEF726FBD2
:10300000FEF7B2FC2046FEF7F1F97D20C7003846F6
:10301000FDF7E2FB3046029E3146FEF7F5F919A0B6
:1030200021462A46FEF712FBFEF79EFC2046FEF7DD
:10303000DDF93846FDF7D0FB01983146FEF7E4F99B
:1030400011A021462A46FEF701FBFEF78DFC204623
:10305000FEF7CCF93846FDF7BFFB2E203146FEF7D0
:10306000D3F90AA021462A46FEF7F0FAFEF77CFCC7
:103070002046FEF7BBF93846FDF7AEFB03B0F0BDC6
:103080003300000032000000310000005354415270
:103090005400000043088B421AD3002203098B42DC
:1030A00079D3030A8B425ED3030B8B4242D3030CCA
:1030B0008B4227D30902FF2212BA030C8B4202D3A0
:1030C0001212090203D0030B8B4233D31AE0D3E070
:1030D000411A8041401C704703460B4371D443089A
:1030E0008B42F5D3002203098B4254D3030A8B424F
:1030F00039D3030B8B421DD3030C8B4202D394466E
:103100006EE0090AC30B8B4201D3CB03C01A5241B4
:10311000830B8B4201D38B03C01A5241430B8B426A
:1031200001D34B03C01A5241030B8B4201D30B0353
:10313000C01A5241C30A8B4201D3CB02C01A52417A
:10314000830A8B4201D38B02C01A5241430A8B423D
:1031500001D34B02C01A5241030A8B4201D30B0226
:10316000C01A5241CDD2C3098B4201D3CB01C01A40
:10317000524183098B4201D38B01C01A524143094A
:103180008B4201D34B01C01A524103098B4201D338
:103190000B01C01A5241C3088B4201D3CB00C01AA5
:1031A000524183088B4201D38B00C01A524143081D
:1031B0008B4201D34B00C01A5241411A52411000B8
:1031C0007047CA0F00D04942031000D34042534019
:1031D00000229C4603098B422DD3030A8B4212D353
:1031E0008901FC2212BA030A8B420CD38901921185
:1031F0008B4208D3890192118B4204D3890137D0C5
:10320000921100E08909C3098B4201D3CB01C01A96
:10321000524183098B4201D38B01C01A52414309A9
:103220008B4201D34B01C01A524103098B4201D397
:103230000B01C01A5241C3088B4201D3CB00C01A04
:10324000524183088B4201D38B00C01A5241D9D21C
:1032500043088B4201D34B00C01A5241411A00D29D
:1032600001465241104663465B1000D3404270470E
:1032700063465B1000D3404201B50021004201D0FB
:10328000C9430846C046C04602BD00000000000019
:103290000000010203040607080900000000000006
:1032A000000000000000000000000000000000100E
:1032B00000100010001000100010000000100000AE
:1032C0000000002800280028000000000000000086
:1032D00000000000000000240024007C00240048BE
:1032E000007C0048004800000000003800540050F6
:1032F0000038001400540054003800100000002072
:103300000054005800300028005400140008000049
:103310000000001000280028001000340048004879
:103320000034000000000010001000100000000039
:103330000000000000000000000000080010002055
:1033400000200020002000200020001000080020A5
:10335000001000080008000800080008000800101D
:1033600000200010003800100028000000000000BD
:103370000000000000000000000000100010007CB1
:10338000001000100000000000000000000000001D
:1033900000000000000000000010001000100000FD
:1033A00000000000000000000038000000000000E5
:1033B000000000000000000000000000000000000D
:1033C00000100000000000080008001000100010AD
:1033D00000100020002000000000003800440044DD
:1033E0000054004400440044003800000000000085
:1033F00000000010001000100010001000500030FD
:10340000001000000000007C0020001000080004F4
:10341000004400440038000000000038004400046C
:1034200000040018000400440038000000000008F8
:103430000008007C00480028002800180008000050
:1034400000000038004400040004007800400044FC
:10345000007C000000000038004400440044007874
:103460000040004400380000000000200020002040
:103470000010001000080004007C0000000000386C
:103480000044004400440038004400440038000078
:103490000000003800440044003C00440044004464
:1034A00000380000000000100000000000000000D4
:1034B00000100000000000000000000000100000EC
:1034C0000000000000100010001000000000000CC0
:1034D000003000400030000C000000000000000040
:1034E00000000000007C0000007C000000000000E4
:1034F00000000000000000600018000400180060D8
:103500000000000000000038004400040008001023
:103510000010000000100000000000380044004CC3
:103520000054005C00400040003800000000000033
:10353000000000440044007C0028002800280028E7
:103540000010007800440044007800440044004427
:1035500000780000000000380044004000400040B7
:1035600000400044003800000000007000480044A3
:1035700000440044004400480070000000000000C7
:103580000000007C004000400040007C0040004003
:10359000007C007C0040004000780040004000407B
:1035A000004000000000000000000038004400441B
:1035B000005C0040004000440038004400440044E7
:1035C000007C004400440044004400000000003837
:1035D0000010001000100010001000100038000053
:1035E000000000040004000400040004000400447F
:1035F0000038000000000044004800500060005007
:103600000048004800440000000000400040004026
:103610000040004000400040007C0000000000002E
:10362000000000440044004400440054006C006C5E
:103630000044000000000044004C004C00540054C2
:1036400000640064004400000000003800440044AE
:103650000044004400440044003800780044004422
:1036600000440078004000400040000000000038A6
:103670000044004400440044004400540038000466
:1036800000000000000000440048004800780044AA
:10369000004400440078000000000038004400446A
:1036A0000008003000400044003800000000001016
:1036B000001000100010001000100010007C00002E
:1036C000000000380044004400440044004400442A
:1036D000004400000000001000100028002800280E
:1036E0000044004400440000000000280028006C52
:1036F00000540054005400440044004400280028B2
:103700000010001000280028004400000000000005
:1037100000000010001000100010002800280044D5
:103720000044007C0004000800100010002000404D
:10373000007C0000000000180010001000100010B5
:1037400000100010001000100018002000200010D1
:1037500000100010001000080008000000000030F9
:1037600000100010001000100010001000100010D9
:103770000030001000280028004400000000000075
:103780000000000000000000000000000000000039
:10379000000000000000000000FE002000100000FB
:1037A0000000000000000000000000000000000019
:1037B000000000380044003C0044004C003400008D
:1037C00000000040004000580064004400440064D1
:1037D00000580000000000000000003800440040D5
:1037E00000400044003800000000000400040034E1
:1037F000004C00440044004C003400000000000075
:10380000000000380044007C004000440038000004
:103810000000000C0010007C0010001000100010D0
:10382000001000000000000000000034004C0044C4
:103830000044004C00340004007800400040005870
:1038400000640044004400440044000000000010F4
:1038500000000070001000100010001000100000A8
:103860000000001000000070001000100010001098
:103870000010001000E000400040004800500060D0
:1038800000500048004400000000007000100010CC
:1038900000100010001000100010000000000000D8
:1038A00000000078005400540054005400540000FC
:1038B0000000000000000058006400440044004480
:1038C00000440000000000000000003800440044F4
:1038D00000440044003800000000000000000058D0
:1038E00000640044004400640058004000400000B0
:1038F00000000034004C00440044004C003400043C
:103900000004000000000058006400400040004037
:1039100000400000000000000000003800440030BB
:10392000000800440038000000000020002000785B
:1039300000200020002000200018000000000000EF
:1039400000000044004400440044004C00340000E7
:103950000000000000000044004400280028002867
:10396000001000000000000000000054005400544B
:10397000006C002800280000000000000000004447
:103980000028001000100028004400000000000083
:10399000000000440044002800280010001000101F
:1039A000006000000000007C0008001000200040C3
:1039B000007C000000000018001000100010002023
:1039C000002000100010001000180010001000105F
:1039D0000010001000100010001000100010003047
:1039E0000010001000100008000800100010001067
:1039F00000300000000000000074004C00000000D7
:103A000000000000000002030405060708090A0B75
:103A10000C0D0E0F10100102030405060708090A19
:103A20000B0C0D0E0F10594F5520574F4E00000034
:103A3000503A000800000020500000001C0100085F
:103A4000A03A000850000020780A00003C0100085D
:103A50006D4EC641393000003F00000020000000DC
:103A6000FFFFFFFFFFFFFFFF050000002000000039
:103A7000080000000200000003000000FFFFFFFF3D
:103A800000000080000000000100000004000000B1
:103A9000070A00009A32000800127A0000000000B5
:04000005080000C12E
:00000001FF
